{
  "_format": "hh-sol-artifact-1",
  "contractName": "MemeTokenFactory",
  "sourceName": "contracts/MemeCoinCreator.sol",
  "abi": [
    {
      "inputs": [
        {
          "internalType": "address",
          "name": "_uniswapRouter",
          "type": "address"
        }
      ],
      "stateMutability": "nonpayable",
      "type": "constructor"
    },
    {
      "anonymous": false,
      "inputs": [
        {
          "indexed": false,
          "internalType": "address",
          "name": "tokenAddress",
          "type": "address"
        },
        {
          "indexed": false,
          "internalType": "string",
          "name": "name",
          "type": "string"
        },
        {
          "indexed": false,
          "internalType": "string",
          "name": "symbol",
          "type": "string"
        },
        {
          "indexed": false,
          "internalType": "uint256",
          "name": "initialSupply",
          "type": "uint256"
        },
        {
          "indexed": false,
          "internalType": "uint256",
          "name": "maxSupply",
          "type": "uint256"
        },
        {
          "indexed": false,
          "internalType": "string",
          "name": "logoUrl",
          "type": "string"
        },
        {
          "indexed": false,
          "internalType": "bool",
          "name": "burnEnabled",
          "type": "bool"
        }
      ],
      "name": "TokenCreated",
      "type": "event"
    },
    {
      "inputs": [],
      "name": "CREATION_FEE",
      "outputs": [
        {
          "internalType": "uint256",
          "name": "",
          "type": "uint256"
        }
      ],
      "stateMutability": "view",
      "type": "function"
    },
    {
      "inputs": [
        {
          "internalType": "string",
          "name": "name",
          "type": "string"
        },
        {
          "internalType": "string",
          "name": "symbol",
          "type": "string"
        },
        {
          "internalType": "uint256",
          "name": "initialSupply",
          "type": "uint256"
        },
        {
          "internalType": "uint256",
          "name": "maxSupply",
          "type": "uint256"
        },
        {
          "internalType": "string",
          "name": "logoUrl",
          "type": "string"
        },
        {
          "internalType": "bool",
          "name": "burnEnabled",
          "type": "bool"
        }
      ],
      "name": "createToken",
      "outputs": [
        {
          "internalType": "address",
          "name": "",
          "type": "address"
        }
      ],
      "stateMutability": "payable",
      "type": "function"
    },
    {
      "inputs": [
        {
          "internalType": "address",
          "name": "",
          "type": "address"
        }
      ],
      "name": "createdTokens",
      "outputs": [
        {
          "internalType": "bool",
          "name": "",
          "type": "bool"
        }
      ],
      "stateMutability": "view",
      "type": "function"
    },
    {
      "inputs": [],
      "name": "feeCollector",
      "outputs": [
        {
          "internalType": "address",
          "name": "",
          "type": "address"
        }
      ],
      "stateMutability": "view",
      "type": "function"
    },
    {
      "inputs": [],
      "name": "getCreationFee",
      "outputs": [
        {
          "internalType": "uint256",
          "name": "",
          "type": "uint256"
        }
      ],
      "stateMutability": "pure",
      "type": "function"
    },
    {
      "inputs": [
        {
          "internalType": "address",
          "name": "tokenAddress",
          "type": "address"
        }
      ],
      "name": "isTokenCreatedByFactory",
      "outputs": [
        {
          "internalType": "bool",
          "name": "",
          "type": "bool"
        }
      ],
      "stateMutability": "view",
      "type": "function"
    },
    {
      "inputs": [],
      "name": "uniswapRouter",
      "outputs": [
        {
          "internalType": "address",
          "name": "",
          "type": "address"
        }
      ],
      "stateMutability": "view",
      "type": "function"
    },
    {
      "inputs": [
        {
          "internalType": "address",
          "name": "newCollector",
          "type": "address"
        }
      ],
      "name": "updateFeeCollector",
      "outputs": [],
      "stateMutability": "nonpayable",
      "type": "function"
    }
  ],
  "bytecode": "0x60a060405234801561001057600080fd5b506040516153d83803806153d883398181016040528101906100329190610187565b6001600081905550600073ffffffffffffffffffffffffffffffffffffffff168173ffffffffffffffffffffffffffffffffffffffff16036100a9576040517f08c379a00000000000000000000000000000000000000000000000000000000081526004016100a090610211565b60405180910390fd5b33600160006101000a81548173ffffffffffffffffffffffffffffffffffffffff021916908373ffffffffffffffffffffffffffffffffffffffff1602179055508073ffffffffffffffffffffffffffffffffffffffff1660808173ffffffffffffffffffffffffffffffffffffffff168152505050610231565b600080fd5b600073ffffffffffffffffffffffffffffffffffffffff82169050919050565b600061015482610129565b9050919050565b61016481610149565b811461016f57600080fd5b50565b6000815190506101818161015b565b92915050565b60006020828403121561019d5761019c610124565b5b60006101ab84828501610172565b91505092915050565b600082825260208201905092915050565b7f496e76616c696420726f75746572206164647265737300000000000000000000600082015250565b60006101fb6016836101b4565b9150610206826101c5565b602082019050919050565b6000602082019050818103600083015261022a816101ee565b9050919050565b608051615185610253600039600081816103d301526105ac01526151856000f3fe60806040526004361061007b5760003560e01c8063b31261031161004e578063b312610314610143578063c415b95c14610180578063d2c35ce8146101ab578063db07b68e146101d45761007b565b8063124060831461008057806349a2104d146100b05780634d123b86146100db578063735de9f714610118575b600080fd5b61009a60048036038101906100959190610994565b6101ff565b6040516100a79190610ab6565b60405180910390f35b3480156100bc57600080fd5b506100c5610549565b6040516100d29190610ae0565b60405180910390f35b3480156100e757600080fd5b5061010260048036038101906100fd9190610b27565b610554565b60405161010f9190610b63565b60405180910390f35b34801561012457600080fd5b5061012d6105aa565b60405161013a9190610ab6565b60405180910390f35b34801561014f57600080fd5b5061016a60048036038101906101659190610b27565b6105ce565b6040516101779190610b63565b60405180910390f35b34801561018c57600080fd5b506101956105ee565b6040516101a29190610ab6565b60405180910390f35b3480156101b757600080fd5b506101d260048036038101906101cd9190610b27565b610614565b005b3480156101e057600080fd5b506101e9610757565b6040516101f69190610ae0565b60405180910390f35b6000610209610766565b66b1a2bc2ec50000341015610253576040517f08c379a000000000000000000000000000000000000000000000000000000000815260040161024a90610bdb565b60405180910390fd5b6000875111610297576040517f08c379a000000000000000000000000000000000000000000000000000000000815260040161028e90610c47565b60405180910390fd5b60008651116102db576040517f08c379a00000000000000000000000000000000000000000000000000000000081526004016102d290610cb3565b60405180910390fd5b6000851161031e576040517f08c379a000000000000000000000000000000000000000000000000000000000815260040161031590610d1f565b60405180910390fd5b84841015610361576040517f08c379a000000000000000000000000000000000000000000000000000000000815260040161035890610db1565b60405180910390fd5b60008351116103a5576040517f08c379a000000000000000000000000000000000000000000000000000000000815260040161039c90610e1d565b60405180910390fd5b600087878787878733600160009054906101000a900473ffffffffffffffffffffffffffffffffffffffff167f00000000000000000000000000000000000000000000000000000000000000006040516103fe906107bf565b61041099989796959493929190610eab565b604051809103906000f08015801561042c573d6000803e3d6000fd5b5090506001600260008373ffffffffffffffffffffffffffffffffffffffff1673ffffffffffffffffffffffffffffffffffffffff16815260200190815260200160002060006101000a81548160ff021916908315150217905550600160009054906101000a900473ffffffffffffffffffffffffffffffffffffffff1673ffffffffffffffffffffffffffffffffffffffff166108fc349081150290604051600060405180830381858888f193505050501580156104ef573d6000803e3d6000fd5b507f8e8b0e134978acb1b870ebe3c84e6b196f3976c18f703ae06a43b894ef6921178189898989898960405161052b9796959493929190610f4d565b60405180910390a18091505061053f6107b5565b9695505050505050565b66b1a2bc2ec5000081565b6000600260008373ffffffffffffffffffffffffffffffffffffffff1673ffffffffffffffffffffffffffffffffffffffff16815260200190815260200160002060009054906101000a900460ff169050919050565b7f000000000000000000000000000000000000000000000000000000000000000081565b60026020528060005260406000206000915054906101000a900460ff1681565b600160009054906101000a900473ffffffffffffffffffffffffffffffffffffffff1681565b600160009054906101000a900473ffffffffffffffffffffffffffffffffffffffff1673ffffffffffffffffffffffffffffffffffffffff163373ffffffffffffffffffffffffffffffffffffffff16146106a4576040517f08c379a000000000000000000000000000000000000000000000000000000000815260040161069b9061101d565b60405180910390fd5b600073ffffffffffffffffffffffffffffffffffffffff168173ffffffffffffffffffffffffffffffffffffffff1603610713576040517f08c379a000000000000000000000000000000000000000000000000000000000815260040161070a90611089565b60405180910390fd5b80600160006101000a81548173ffffffffffffffffffffffffffffffffffffffff021916908373ffffffffffffffffffffffffffffffffffffffff16021790555050565b600066b1a2bc2ec50000905090565b6002600054036107ab576040517f08c379a00000000000000000000000000000000000000000000000000000000081526004016107a2906110f5565b60405180910390fd5b6002600081905550565b6001600081905550565b61403a8061111683390190565b6000604051905090565b600080fd5b600080fd5b600080fd5b600080fd5b6000601f19601f8301169050919050565b7f4e487b7100000000000000000000000000000000000000000000000000000000600052604160045260246000fd5b610833826107ea565b810181811067ffffffffffffffff82111715610852576108516107fb565b5b80604052505050565b60006108656107cc565b9050610871828261082a565b919050565b600067ffffffffffffffff821115610891576108906107fb565b5b61089a826107ea565b9050602081019050919050565b82818337600083830152505050565b60006108c96108c484610876565b61085b565b9050828152602081018484840111156108e5576108e46107e5565b5b6108f08482856108a7565b509392505050565b600082601f83011261090d5761090c6107e0565b5b813561091d8482602086016108b6565b91505092915050565b6000819050919050565b61093981610926565b811461094457600080fd5b50565b60008135905061095681610930565b92915050565b60008115159050919050565b6109718161095c565b811461097c57600080fd5b50565b60008135905061098e81610968565b92915050565b60008060008060008060c087890312156109b1576109b06107d6565b5b600087013567ffffffffffffffff8111156109cf576109ce6107db565b5b6109db89828a016108f8565b965050602087013567ffffffffffffffff8111156109fc576109fb6107db565b5b610a0889828a016108f8565b9550506040610a1989828a01610947565b9450506060610a2a89828a01610947565b935050608087013567ffffffffffffffff811115610a4b57610a4a6107db565b5b610a5789828a016108f8565b92505060a0610a6889828a0161097f565b9150509295509295509295565b600073ffffffffffffffffffffffffffffffffffffffff82169050919050565b6000610aa082610a75565b9050919050565b610ab081610a95565b82525050565b6000602082019050610acb6000830184610aa7565b92915050565b610ada81610926565b82525050565b6000602082019050610af56000830184610ad1565b92915050565b610b0481610a95565b8114610b0f57600080fd5b50565b600081359050610b2181610afb565b92915050565b600060208284031215610b3d57610b3c6107d6565b5b6000610b4b84828501610b12565b91505092915050565b610b5d8161095c565b82525050565b6000602082019050610b786000830184610b54565b92915050565b600082825260208201905092915050565b7f496e73756666696369656e74207061796d656e74000000000000000000000000600082015250565b6000610bc5601483610b7e565b9150610bd082610b8f565b602082019050919050565b60006020820190508181036000830152610bf481610bb8565b9050919050565b7f4e616d652063616e6e6f7420626520656d707479000000000000000000000000600082015250565b6000610c31601483610b7e565b9150610c3c82610bfb565b602082019050919050565b60006020820190508181036000830152610c6081610c24565b9050919050565b7f53796d626f6c2063616e6e6f7420626520656d70747900000000000000000000600082015250565b6000610c9d601683610b7e565b9150610ca882610c67565b602082019050919050565b60006020820190508181036000830152610ccc81610c90565b9050919050565b7f496e697469616c20737570706c79206d757374206265203e2030000000000000600082015250565b6000610d09601a83610b7e565b9150610d1482610cd3565b602082019050919050565b60006020820190508181036000830152610d3881610cfc565b9050919050565b7f4d617820737570706c79206d757374206265203e3d20696e697469616c20737560008201527f70706c7900000000000000000000000000000000000000000000000000000000602082015250565b6000610d9b602483610b7e565b9150610da682610d3f565b604082019050919050565b60006020820190508181036000830152610dca81610d8e565b9050919050565b7f4c6f676f2055524c2063616e6e6f7420626520656d7074790000000000000000600082015250565b6000610e07601883610b7e565b9150610e1282610dd1565b602082019050919050565b60006020820190508181036000830152610e3681610dfa565b9050919050565b600081519050919050565b60005b83811015610e66578082015181840152602081019050610e4b565b60008484015250505050565b6000610e7d82610e3d565b610e878185610b7e565b9350610e97818560208601610e48565b610ea0816107ea565b840191505092915050565b6000610120820190508181036000830152610ec6818c610e72565b90508181036020830152610eda818b610e72565b9050610ee9604083018a610ad1565b610ef66060830189610ad1565b8181036080830152610f088188610e72565b9050610f1760a0830187610b54565b610f2460c0830186610aa7565b610f3160e0830185610aa7565b610f3f610100830184610aa7565b9a9950505050505050505050565b600060e082019050610f62600083018a610aa7565b8181036020830152610f748189610e72565b90508181036040830152610f888188610e72565b9050610f976060830187610ad1565b610fa46080830186610ad1565b81810360a0830152610fb68185610e72565b9050610fc560c0830184610b54565b98975050505050505050565b7f4f6e6c792066656520636f6c6c6563746f722063616e20757064617465000000600082015250565b6000611007601d83610b7e565b915061101282610fd1565b602082019050919050565b6000602082019050818103600083015261103681610ffa565b9050919050565b7f496e76616c696420616464726573730000000000000000000000000000000000600082015250565b6000611073600f83610b7e565b915061107e8261103d565b602082019050919050565b600060208201905081810360008301526110a281611066565b9050919050565b7f5265656e7472616e637947756172643a207265656e7472616e742063616c6c00600082015250565b60006110df601f83610b7e565b91506110ea826110a9565b602082019050919050565b6000602082019050818103600083015261110e816110d2565b905091905056fe608060405234801561001057600080fd5b5060405161403a38038061403a833981810160405281019061003291906106e6565b888881600390816100439190610a1b565b5080600490816100539190610a1b565b5050506100726100676101b760201b60201c565b6101bf60201b60201c565b600160068190555061008861028560201b60201c565b868610156100cb576040517f08c379a00000000000000000000000000000000000000000000000000000000081526004016100c290610b70565b60405180910390fd5b84600790816100da9190610a1b565b508560088190555083600960006101000a81548160ff0219169083151502179055506001600960016101000a81548160ff02191690831515021790555081600960046101000a81548173ffffffffffffffffffffffffffffffffffffffff021916908373ffffffffffffffffffffffffffffffffffffffff16021790555080600a60006101000a81548173ffffffffffffffffffffffffffffffffffffffff021916908373ffffffffffffffffffffffffffffffffffffffff1602179055506101a9838861030f60201b60201c565b505050505050505050610cf5565b600033905090565b6000600560009054906101000a900473ffffffffffffffffffffffffffffffffffffffff16905081600560006101000a81548173ffffffffffffffffffffffffffffffffffffffff021916908373ffffffffffffffffffffffffffffffffffffffff1602179055508173ffffffffffffffffffffffffffffffffffffffff168173ffffffffffffffffffffffffffffffffffffffff167f8be0079c531659141344cd1fd0a4f28419497f9722a3daafe3b4186f6b6457e060405160405180910390a35050565b6102936101b760201b60201c565b73ffffffffffffffffffffffffffffffffffffffff166102b761047160201b60201c565b73ffffffffffffffffffffffffffffffffffffffff161461030d576040517f08c379a000000000000000000000000000000000000000000000000000000000815260040161030490610bdc565b60405180910390fd5b565b600073ffffffffffffffffffffffffffffffffffffffff168273ffffffffffffffffffffffffffffffffffffffff160361037e576040517f08c379a000000000000000000000000000000000000000000000000000000000815260040161037590610c48565b60405180910390fd5b6103906000838361049b60201b60201c565b80600260008282546103a29190610c97565b92505081905550806000808473ffffffffffffffffffffffffffffffffffffffff1673ffffffffffffffffffffffffffffffffffffffff168152602001908152602001600020600082825401925050819055508173ffffffffffffffffffffffffffffffffffffffff16600073ffffffffffffffffffffffffffffffffffffffff167fddf252ad1be2c89b69c2b068fc378daa952ba7f163c4a11628f55a4df523b3ef836040516104539190610cda565b60405180910390a361046d600083836104a060201b60201c565b5050565b6000600560009054906101000a900473ffffffffffffffffffffffffffffffffffffffff16905090565b505050565b505050565b6000604051905090565b600080fd5b600080fd5b600080fd5b600080fd5b6000601f19601f8301169050919050565b7f4e487b7100000000000000000000000000000000000000000000000000000000600052604160045260246000fd5b61050c826104c3565b810181811067ffffffffffffffff8211171561052b5761052a6104d4565b5b80604052505050565b600061053e6104a5565b905061054a8282610503565b919050565b600067ffffffffffffffff82111561056a576105696104d4565b5b610573826104c3565b9050602081019050919050565b60005b8381101561059e578082015181840152602081019050610583565b60008484015250505050565b60006105bd6105b88461054f565b610534565b9050828152602081018484840111156105d9576105d86104be565b5b6105e4848285610580565b509392505050565b600082601f830112610601576106006104b9565b5b81516106118482602086016105aa565b91505092915050565b6000819050919050565b61062d8161061a565b811461063857600080fd5b50565b60008151905061064a81610624565b92915050565b60008115159050919050565b61066581610650565b811461067057600080fd5b50565b6000815190506106828161065c565b92915050565b600073ffffffffffffffffffffffffffffffffffffffff82169050919050565b60006106b382610688565b9050919050565b6106c3816106a8565b81146106ce57600080fd5b50565b6000815190506106e0816106ba565b92915050565b60008060008060008060008060006101208a8c031215610709576107086104af565b5b60008a015167ffffffffffffffff811115610727576107266104b4565b5b6107338c828d016105ec565b99505060208a015167ffffffffffffffff811115610754576107536104b4565b5b6107608c828d016105ec565b98505060406107718c828d0161063b565b97505060606107828c828d0161063b565b96505060808a015167ffffffffffffffff8111156107a3576107a26104b4565b5b6107af8c828d016105ec565b95505060a06107c08c828d01610673565b94505060c06107d18c828d016106d1565b93505060e06107e28c828d016106d1565b9250506101006107f48c828d016106d1565b9150509295985092959850929598565b600081519050919050565b7f4e487b7100000000000000000000000000000000000000000000000000000000600052602260045260246000fd5b6000600282049050600182168061085657607f821691505b6020821081036108695761086861080f565b5b50919050565b60008190508160005260206000209050919050565b60006020601f8301049050919050565b600082821b905092915050565b6000600883026108d17fffffffffffffffffffffffffffffffffffffffffffffffffffffffffffffffff82610894565b6108db8683610894565b95508019841693508086168417925050509392505050565b6000819050919050565b600061091861091361090e8461061a565b6108f3565b61061a565b9050919050565b6000819050919050565b610932836108fd565b61094661093e8261091f565b8484546108a1565b825550505050565b600090565b61095b61094e565b610966818484610929565b505050565b5b8181101561098a5761097f600082610953565b60018101905061096c565b5050565b601f8211156109cf576109a08161086f565b6109a984610884565b810160208510156109b8578190505b6109cc6109c485610884565b83018261096b565b50505b505050565b600082821c905092915050565b60006109f2600019846008026109d4565b1980831691505092915050565b6000610a0b83836109e1565b9150826002028217905092915050565b610a2482610804565b67ffffffffffffffff811115610a3d57610a3c6104d4565b5b610a47825461083e565b610a5282828561098e565b600060209050601f831160018114610a855760008415610a73578287015190505b610a7d85826109ff565b865550610ae5565b601f198416610a938661086f565b60005b82811015610abb57848901518255600182019150602085019450602081019050610a96565b86831015610ad85784890151610ad4601f8916826109e1565b8355505b6001600288020188555050505b505050505050565b600082825260208201905092915050565b7f4d617820737570706c79206d757374206265203e3d20696e697469616c20737560008201527f70706c7900000000000000000000000000000000000000000000000000000000602082015250565b6000610b5a602483610aed565b9150610b6582610afe565b604082019050919050565b60006020820190508181036000830152610b8981610b4d565b9050919050565b7f4f776e61626c653a2063616c6c6572206973206e6f7420746865206f776e6572600082015250565b6000610bc6602083610aed565b9150610bd182610b90565b602082019050919050565b60006020820190508181036000830152610bf581610bb9565b9050919050565b7f45524332303a206d696e7420746f20746865207a65726f206164647265737300600082015250565b6000610c32601f83610aed565b9150610c3d82610bfc565b602082019050919050565b60006020820190508181036000830152610c6181610c25565b9050919050565b7f4e487b7100000000000000000000000000000000000000000000000000000000600052601160045260246000fd5b6000610ca28261061a565b9150610cad8361061a565b9250828201905080821115610cc557610cc4610c68565b5b92915050565b610cd48161061a565b82525050565b6000602082019050610cef6000830184610ccb565b92915050565b61333680610d046000396000f3fe6080604052600436106101f95760003560e01c80634b958c7b1161010d57806397304ced116100a0578063c415b95c1161006f578063c415b95c146106de578063d7bf81a314610709578063db8d55f114610734578063dd62ed3e14610762578063f2fde38b1461079f576101f9565b806397304ced1461063e57806399b3517f1461065a578063a457c2d714610664578063a9059cbb146106a1576101f9565b8063715018a6116100dc578063715018a6146105a857806379cc6790146105bf5780638da5cb5b146105e857806395d89b4114610613576101f9565b80634b958c7b146104f95780634c0f38c21461051557806355c7ba141461054057806370a082311461056b576101f9565b80631baca69411610190578063395093511161015f578063395093511461041257806342966c681461044f5780634465394a14610478578063480df058146104a357806349bd5a5e146104ce576101f9565b80631baca6941461036857806320800a001461039357806323b872dd146103aa578063313ce567146103e7576101f9565b80630a9ece94116101cc5780630a9ece94146102bc5780630b6700d6146102e75780631694505e1461031257806318160ddd1461033d576101f9565b80630116e377146101fe57806306fdde031461022957806307ebec2714610254578063095ea7b31461027f575b600080fd5b34801561020a57600080fd5b506102136107c8565b60405161022091906121d0565b60405180910390f35b34801561023557600080fd5b5061023e6107db565b60405161024b919061227b565b60405180910390f35b34801561026057600080fd5b5061026961086d565b60405161027691906121d0565b60405180910390f35b34801561028b57600080fd5b506102a660048036038101906102a19190612336565b610884565b6040516102b391906121d0565b60405180910390f35b3480156102c857600080fd5b506102d16108a7565b6040516102de9190612385565b60405180910390f35b3480156102f357600080fd5b506102fc6108b2565b604051610309919061227b565b60405180910390f35b34801561031e57600080fd5b50610327610944565b60405161033491906123ff565b60405180910390f35b34801561034957600080fd5b5061035261096a565b60405161035f9190612385565b60405180910390f35b34801561037457600080fd5b5061037d610974565b60405161038a9190612385565b60405180910390f35b34801561039f57600080fd5b506103a861097f565b005b3480156103b657600080fd5b506103d160048036038101906103cc919061241a565b6109d7565b6040516103de91906121d0565b60405180910390f35b3480156103f357600080fd5b506103fc610a06565b6040516104099190612489565b60405180910390f35b34801561041e57600080fd5b5061043960048036038101906104349190612336565b610a0f565b60405161044691906121d0565b60405180910390f35b34801561045b57600080fd5b50610476600480360381019061047191906124a4565b610a46565b005b34801561048457600080fd5b5061048d610a5a565b60405161049a91906121d0565b60405180910390f35b3480156104af57600080fd5b506104b8610a6d565b6040516104c59190612385565b60405180910390f35b3480156104da57600080fd5b506104e3610a78565b6040516104f091906124e0565b60405180910390f35b610513600480360381019061050e91906124a4565b610a9e565b005b34801561052157600080fd5b5061052a611061565b6040516105379190612385565b60405180910390f35b34801561054c57600080fd5b5061055561106b565b60405161056291906121d0565b60405180910390f35b34801561057757600080fd5b50610592600480360381019061058d91906124fb565b61109b565b60405161059f9190612385565b60405180910390f35b3480156105b457600080fd5b506105bd6110e3565b005b3480156105cb57600080fd5b506105e660048036038101906105e19190612336565b6110f7565b005b3480156105f457600080fd5b506105fd611117565b60405161060a91906124e0565b60405180910390f35b34801561061f57600080fd5b50610628611141565b604051610635919061227b565b60405180910390f35b610658600480360381019061065391906124a4565b6111d3565b005b610662611420565b005b34801561067057600080fd5b5061068b60048036038101906106869190612336565b61160f565b60405161069891906121d0565b60405180910390f35b3480156106ad57600080fd5b506106c860048036038101906106c39190612336565b611686565b6040516106d591906121d0565b60405180910390f35b3480156106ea57600080fd5b506106f36116a9565b60405161070091906124e0565b60405180910390f35b34801561071557600080fd5b5061071e6116cf565b60405161072b9190612385565b60405180910390f35b34801561074057600080fd5b506107496116da565b6040516107599493929190612528565b60405180910390f35b34801561076e57600080fd5b506107896004803603810190610784919061256d565b61170e565b6040516107969190612385565b60405180910390f35b3480156107ab57600080fd5b506107c660048036038101906107c191906124fb565b611795565b005b600960029054906101000a900460ff1681565b6060600380546107ea906125dc565b80601f0160208091040260200160405190810160405280929190818152602001828054610816906125dc565b80156108635780601f1061083857610100808354040283529160200191610863565b820191906000526020600020905b81548152906001019060200180831161084657829003601f168201915b5050505050905090565b6000600960009054906101000a900460ff16905090565b60008061088f611818565b905061089c818585611820565b600191505092915050565b666a94d74f43000081565b6060600780546108c1906125dc565b80601f01602080910402602001604051908101604052809291908181526020018280546108ed906125dc565b801561093a5780601f1061090f5761010080835404028352916020019161093a565b820191906000526020600020905b81548152906001019060200180831161091d57829003601f168201915b5050505050905090565b600a60009054906101000a900473ffffffffffffffffffffffffffffffffffffffff1681565b6000600254905090565b66b1a2bc2ec5000081565b6109876119e9565b61098f611117565b73ffffffffffffffffffffffffffffffffffffffff166108fc479081150290604051600060405180830381858888f193505050501580156109d4573d6000803e3d6000fd5b50565b6000806109e2611818565b90506109ef858285611a67565b6109fa858585611af3565b60019150509392505050565b60006012905090565b600080610a1a611818565b9050610a3b818585610a2c858961170e565b610a36919061263c565b611820565b600191505092915050565b610a57610a51611818565b82611d69565b50565b600960039054906101000a900460ff1681565b662386f26fc1000081565b600b60009054906101000a900473ffffffffffffffffffffffffffffffffffffffff1681565b610aa6611f36565b610aae6119e9565b600960029054906101000a900460ff1615610afe576040517f08c379a0000000000000000000000000000000000000000000000000000000008152600401610af5906126bc565b60405180910390fd5b66b1a2bc2ec50000341015610b48576040517f08c379a0000000000000000000000000000000000000000000000000000000008152600401610b3f90612728565b60405180910390fd5b60008111610b8b576040517f08c379a0000000000000000000000000000000000000000000000000000000008152600401610b82906127ba565b60405180910390fd5b80610b953361109b565b1015610bd6576040517f08c379a0000000000000000000000000000000000000000000000000000000008152600401610bcd90612826565b60405180910390fd5b600960049054906101000a900473ffffffffffffffffffffffffffffffffffffffff1673ffffffffffffffffffffffffffffffffffffffff166108fc66b1a2bc2ec500009081150290604051600060405180830381858888f19350505050158015610c45573d6000803e3d6000fd5b50600073ffffffffffffffffffffffffffffffffffffffff16600b60009054906101000a900473ffffffffffffffffffffffffffffffffffffffff1673ffffffffffffffffffffffffffffffffffffffff1603610e7b57600a60009054906101000a900473ffffffffffffffffffffffffffffffffffffffff1673ffffffffffffffffffffffffffffffffffffffff1663ad5c46486040518163ffffffff1660e01b8152600401602060405180830381865afa158015610d09573d6000803e3d6000fd5b505050506040513d601f19601f82011682018060405250810190610d2d919061285b565b73ffffffffffffffffffffffffffffffffffffffff1663c9c6539630600a60009054906101000a900473ffffffffffffffffffffffffffffffffffffffff1673ffffffffffffffffffffffffffffffffffffffff1663ad5c46486040518163ffffffff1660e01b8152600401602060405180830381865afa158015610db6573d6000803e3d6000fd5b505050506040513d601f19601f82011682018060405250810190610dda919061285b565b6040518363ffffffff1660e01b8152600401610df7929190612888565b6020604051808303816000875af1158015610e16573d6000803e3d6000fd5b505050506040513d601f19601f82011682018060405250810190610e3a919061285b565b600b60006101000a81548173ffffffffffffffffffffffffffffffffffffffff021916908373ffffffffffffffffffffffffffffffffffffffff1602179055505b610ea833600a60009054906101000a900473ffffffffffffffffffffffffffffffffffffffff1683611820565b600066b1a2bc2ec5000034610ebd91906128b1565b90506000806000600a60009054906101000a900473ffffffffffffffffffffffffffffffffffffffff1673ffffffffffffffffffffffffffffffffffffffff1663f305d7198530886000803361012c42610f17919061263c565b6040518863ffffffff1660e01b8152600401610f3896959493929190612920565b60606040518083038185885af1158015610f56573d6000803e3d6000fd5b50505050506040513d601f19601f82011682018060405250810190610f7b9190612996565b9250925092506001600960026101000a81548160ff0219169083151502179055507f7d8a82854e233f0a9eebcf831c1c7165d0a24090f0abfefe183e60aa8d23e6e7600b60009054906101000a900473ffffffffffffffffffffffffffffffffffffffff1682604051610fef9291906129e9565b60405180910390a181841115611052573373ffffffffffffffffffffffffffffffffffffffff166108fc838661102591906128b1565b9081150290604051600060405180830381858888f19350505050158015611050573d6000803e3d6000fd5b505b5050505061105e611f85565b50565b6000600854905090565b6000600960019054906101000a900460ff1680156110965750600960039054906101000a900460ff16155b905090565b60008060008373ffffffffffffffffffffffffffffffffffffffff1673ffffffffffffffffffffffffffffffffffffffff168152602001908152602001600020549050919050565b6110eb6119e9565b6110f56000611f8f565b565b61110982611103611818565b83611a67565b6111138282611d69565b5050565b6000600560009054906101000a900473ffffffffffffffffffffffffffffffffffffffff16905090565b606060048054611150906125dc565b80601f016020809104026020016040519081016040528092919081815260200182805461117c906125dc565b80156111c95780601f1061119e576101008083540402835291602001916111c9565b820191906000526020600020905b8154815290600101906020018083116111ac57829003601f168201915b5050505050905090565b6111db611f36565b600960019054906101000a900460ff1680156112045750600960039054906101000a900460ff16155b611243576040517f08c379a000000000000000000000000000000000000000000000000000000000815260040161123a90612a5e565b60405180910390fd5b66470de4df82000034101561128d576040517f08c379a000000000000000000000000000000000000000000000000000000000815260040161128490612aca565b60405180910390fd5b6008548161129961096a565b6112a3919061263c565b11156112e4576040517f08c379a00000000000000000000000000000000000000000000000000000000081526004016112db90612b36565b60405180910390fd5b600960049054906101000a900473ffffffffffffffffffffffffffffffffffffffff1673ffffffffffffffffffffffffffffffffffffffff166108fc66470de4df8200009081150290604051600060405180830381858888f19350505050158015611353573d6000803e3d6000fd5b5066470de4df8200003411156113bd573373ffffffffffffffffffffffffffffffffffffffff166108fc66470de4df8200003461139091906128b1565b9081150290604051600060405180830381858888f193505050501580156113bb573d6000803e3d6000fd5b505b6113c73382612055565b3373ffffffffffffffffffffffffffffffffffffffff167f3f2c9d57c068687834f0de942a9babb9e5acab57d516d3480a3c16ee165a42738260405161140d9190612385565b60405180910390a261141d611f85565b50565b611428611f36565b6114306119e9565b600960039054906101000a900460ff1615611480576040517f08c379a000000000000000000000000000000000000000000000000000000000815260040161147790612ba2565b60405180910390fd5b666a94d74f4300003410156114ca576040517f08c379a00000000000000000000000000000000000000000000000000000000081526004016114c190612c0e565b60405180910390fd5b600960049054906101000a900473ffffffffffffffffffffffffffffffffffffffff1673ffffffffffffffffffffffffffffffffffffffff166108fc666a94d74f4300009081150290604051600060405180830381858888f19350505050158015611539573d6000803e3d6000fd5b50666a94d74f4300003411156115a3573373ffffffffffffffffffffffffffffffffffffffff166108fc666a94d74f4300003461157691906128b1565b9081150290604051600060405180830381858888f193505050501580156115a1573d6000803e3d6000fd5b505b6001600960036101000a81548160ff0219169083151502179055506000600960016101000a81548160ff0219169083151502179055507f5636e39851395b82c1d98af09d129828f18da355ebc1d8030f8839467367132c60405160405180910390a161160d611f85565b565b60008061161a611818565b90506000611628828661170e565b90508381101561166d576040517f08c379a000000000000000000000000000000000000000000000000000000000815260040161166490612ca0565b60405180910390fd5b61167a8286868403611820565b60019250505092915050565b600080611691611818565b905061169e818585611af3565b600191505092915050565b600960049054906101000a900473ffffffffffffffffffffffffffffffffffffffff1681565b66470de4df82000081565b600080600080662386f26fc1000066470de4df82000066b1a2bc2ec50000666a94d74f430000935093509350935090919293565b6000600160008473ffffffffffffffffffffffffffffffffffffffff1673ffffffffffffffffffffffffffffffffffffffff16815260200190815260200160002060008373ffffffffffffffffffffffffffffffffffffffff1673ffffffffffffffffffffffffffffffffffffffff16815260200190815260200160002054905092915050565b61179d6119e9565b600073ffffffffffffffffffffffffffffffffffffffff168173ffffffffffffffffffffffffffffffffffffffff160361180c576040517f08c379a000000000000000000000000000000000000000000000000000000000815260040161180390612d32565b60405180910390fd5b61181581611f8f565b50565b600033905090565b600073ffffffffffffffffffffffffffffffffffffffff168373ffffffffffffffffffffffffffffffffffffffff160361188f576040517f08c379a000000000000000000000000000000000000000000000000000000000815260040161188690612dc4565b60405180910390fd5b600073ffffffffffffffffffffffffffffffffffffffff168273ffffffffffffffffffffffffffffffffffffffff16036118fe576040517f08c379a00000000000000000000000000000000000000000000000000000000081526004016118f590612e56565b60405180910390fd5b80600160008573ffffffffffffffffffffffffffffffffffffffff1673ffffffffffffffffffffffffffffffffffffffff16815260200190815260200160002060008473ffffffffffffffffffffffffffffffffffffffff1673ffffffffffffffffffffffffffffffffffffffff168152602001908152602001600020819055508173ffffffffffffffffffffffffffffffffffffffff168373ffffffffffffffffffffffffffffffffffffffff167f8c5be1e5ebec7d5bd14f71427d1e84f3dd0314c0f7b2291e5b200ac8c7c3b925836040516119dc9190612385565b60405180910390a3505050565b6119f1611818565b73ffffffffffffffffffffffffffffffffffffffff16611a0f611117565b73ffffffffffffffffffffffffffffffffffffffff1614611a65576040517f08c379a0000000000000000000000000000000000000000000000000000000008152600401611a5c90612ec2565b60405180910390fd5b565b6000611a73848461170e565b90507fffffffffffffffffffffffffffffffffffffffffffffffffffffffffffffffff8114611aed5781811015611adf576040517f08c379a0000000000000000000000000000000000000000000000000000000008152600401611ad690612f2e565b60405180910390fd5b611aec8484848403611820565b5b50505050565b600073ffffffffffffffffffffffffffffffffffffffff168373ffffffffffffffffffffffffffffffffffffffff1603611b62576040517f08c379a0000000000000000000000000000000000000000000000000000000008152600401611b5990612fc0565b60405180910390fd5b600073ffffffffffffffffffffffffffffffffffffffff168273ffffffffffffffffffffffffffffffffffffffff1603611bd1576040517f08c379a0000000000000000000000000000000000000000000000000000000008152600401611bc890613052565b60405180910390fd5b611bdc8383836121ab565b60008060008573ffffffffffffffffffffffffffffffffffffffff1673ffffffffffffffffffffffffffffffffffffffff16815260200190815260200160002054905081811015611c62576040517f08c379a0000000000000000000000000000000000000000000000000000000008152600401611c59906130e4565b60405180910390fd5b8181036000808673ffffffffffffffffffffffffffffffffffffffff1673ffffffffffffffffffffffffffffffffffffffff16815260200190815260200160002081905550816000808573ffffffffffffffffffffffffffffffffffffffff1673ffffffffffffffffffffffffffffffffffffffff168152602001908152602001600020600082825401925050819055508273ffffffffffffffffffffffffffffffffffffffff168473ffffffffffffffffffffffffffffffffffffffff167fddf252ad1be2c89b69c2b068fc378daa952ba7f163c4a11628f55a4df523b3ef84604051611d509190612385565b60405180910390a3611d638484846121b0565b50505050565b600073ffffffffffffffffffffffffffffffffffffffff168273ffffffffffffffffffffffffffffffffffffffff1603611dd8576040517f08c379a0000000000000000000000000000000000000000000000000000000008152600401611dcf90613176565b60405180910390fd5b611de4826000836121ab565b60008060008473ffffffffffffffffffffffffffffffffffffffff1673ffffffffffffffffffffffffffffffffffffffff16815260200190815260200160002054905081811015611e6a576040517f08c379a0000000000000000000000000000000000000000000000000000000008152600401611e6190613208565b60405180910390fd5b8181036000808573ffffffffffffffffffffffffffffffffffffffff1673ffffffffffffffffffffffffffffffffffffffff1681526020019081526020016000208190555081600260008282540392505081905550600073ffffffffffffffffffffffffffffffffffffffff168373ffffffffffffffffffffffffffffffffffffffff167fddf252ad1be2c89b69c2b068fc378daa952ba7f163c4a11628f55a4df523b3ef84604051611f1d9190612385565b60405180910390a3611f31836000846121b0565b505050565b600260065403611f7b576040517f08c379a0000000000000000000000000000000000000000000000000000000008152600401611f7290613274565b60405180910390fd5b6002600681905550565b6001600681905550565b6000600560009054906101000a900473ffffffffffffffffffffffffffffffffffffffff16905081600560006101000a81548173ffffffffffffffffffffffffffffffffffffffff021916908373ffffffffffffffffffffffffffffffffffffffff1602179055508173ffffffffffffffffffffffffffffffffffffffff168173ffffffffffffffffffffffffffffffffffffffff167f8be0079c531659141344cd1fd0a4f28419497f9722a3daafe3b4186f6b6457e060405160405180910390a35050565b600073ffffffffffffffffffffffffffffffffffffffff168273ffffffffffffffffffffffffffffffffffffffff16036120c4576040517f08c379a00000000000000000000000000000000000000000000000000000000081526004016120bb906132e0565b60405180910390fd5b6120d0600083836121ab565b80600260008282546120e2919061263c565b92505081905550806000808473ffffffffffffffffffffffffffffffffffffffff1673ffffffffffffffffffffffffffffffffffffffff168152602001908152602001600020600082825401925050819055508173ffffffffffffffffffffffffffffffffffffffff16600073ffffffffffffffffffffffffffffffffffffffff167fddf252ad1be2c89b69c2b068fc378daa952ba7f163c4a11628f55a4df523b3ef836040516121939190612385565b60405180910390a36121a7600083836121b0565b5050565b505050565b505050565b60008115159050919050565b6121ca816121b5565b82525050565b60006020820190506121e560008301846121c1565b92915050565b600081519050919050565b600082825260208201905092915050565b60005b8381101561222557808201518184015260208101905061220a565b60008484015250505050565b6000601f19601f8301169050919050565b600061224d826121eb565b61225781856121f6565b9350612267818560208601612207565b61227081612231565b840191505092915050565b600060208201905081810360008301526122958184612242565b905092915050565b600080fd5b600073ffffffffffffffffffffffffffffffffffffffff82169050919050565b60006122cd826122a2565b9050919050565b6122dd816122c2565b81146122e857600080fd5b50565b6000813590506122fa816122d4565b92915050565b6000819050919050565b61231381612300565b811461231e57600080fd5b50565b6000813590506123308161230a565b92915050565b6000806040838503121561234d5761234c61229d565b5b600061235b858286016122eb565b925050602061236c85828601612321565b9150509250929050565b61237f81612300565b82525050565b600060208201905061239a6000830184612376565b92915050565b6000819050919050565b60006123c56123c06123bb846122a2565b6123a0565b6122a2565b9050919050565b60006123d7826123aa565b9050919050565b60006123e9826123cc565b9050919050565b6123f9816123de565b82525050565b600060208201905061241460008301846123f0565b92915050565b6000806000606084860312156124335761243261229d565b5b6000612441868287016122eb565b9350506020612452868287016122eb565b925050604061246386828701612321565b9150509250925092565b600060ff82169050919050565b6124838161246d565b82525050565b600060208201905061249e600083018461247a565b92915050565b6000602082840312156124ba576124b961229d565b5b60006124c884828501612321565b91505092915050565b6124da816122c2565b82525050565b60006020820190506124f560008301846124d1565b92915050565b6000602082840312156125115761251061229d565b5b600061251f848285016122eb565b91505092915050565b600060808201905061253d6000830187612376565b61254a6020830186612376565b6125576040830185612376565b6125646060830184612376565b95945050505050565b600080604083850312156125845761258361229d565b5b6000612592858286016122eb565b92505060206125a3858286016122eb565b9150509250929050565b7f4e487b7100000000000000000000000000000000000000000000000000000000600052602260045260246000fd5b600060028204905060018216806125f457607f821691505b602082108103612607576126066125ad565b5b50919050565b7f4e487b7100000000000000000000000000000000000000000000000000000000600052601160045260246000fd5b600061264782612300565b915061265283612300565b925082820190508082111561266a5761266961260d565b5b92915050565b7f4c697175696469747920706f6f6c20616c726561647920637265617465640000600082015250565b60006126a6601e836121f6565b91506126b182612670565b602082019050919050565b600060208201905081810360008301526126d581612699565b9050919050565b7f496e73756666696369656e74206c697175696469747920706f6f6c2066656500600082015250565b6000612712601f836121f6565b915061271d826126dc565b602082019050919050565b6000602082019050818103600083015261274181612705565b9050919050565b7f546f6b656e20616d6f756e74206d75737420626520677265617465722074686160008201527f6e20300000000000000000000000000000000000000000000000000000000000602082015250565b60006127a46023836121f6565b91506127af82612748565b604082019050919050565b600060208201905081810360008301526127d381612797565b9050919050565b7f496e73756666696369656e7420746f6b656e2062616c616e6365000000000000600082015250565b6000612810601a836121f6565b915061281b826127da565b602082019050919050565b6000602082019050818103600083015261283f81612803565b9050919050565b600081519050612855816122d4565b92915050565b6000602082840312156128715761287061229d565b5b600061287f84828501612846565b91505092915050565b600060408201905061289d60008301856124d1565b6128aa60208301846124d1565b9392505050565b60006128bc82612300565b91506128c783612300565b92508282039050818111156128df576128de61260d565b5b92915050565b6000819050919050565b600061290a612905612900846128e5565b6123a0565b612300565b9050919050565b61291a816128ef565b82525050565b600060c08201905061293560008301896124d1565b6129426020830188612376565b61294f6040830187612911565b61295c6060830186612911565b61296960808301856124d1565b61297660a0830184612376565b979650505050505050565b6000815190506129908161230a565b92915050565b6000806000606084860312156129af576129ae61229d565b5b60006129bd86828701612981565b93505060206129ce86828701612981565b92505060406129df86828701612981565b9150509250925092565b60006040820190506129fe60008301856124d1565b612a0b6020830184612376565b9392505050565b7f4d696e74696e672069732064697361626c6564206f72207265766f6b65640000600082015250565b6000612a48601e836121f6565b9150612a5382612a12565b602082019050919050565b60006020820190508181036000830152612a7781612a3b565b9050919050565b7f496e73756666696369656e74206d696e74206665650000000000000000000000600082015250565b6000612ab46015836121f6565b9150612abf82612a7e565b602082019050919050565b60006020820190508181036000830152612ae381612aa7565b9050919050565b7f576f756c6420657863656564206d617820737570706c79000000000000000000600082015250565b6000612b206017836121f6565b9150612b2b82612aea565b602082019050919050565b60006020820190508181036000830152612b4f81612b13565b9050919050565b7f4d696e74696e6720616c7265616479207265766f6b6564000000000000000000600082015250565b6000612b8c6017836121f6565b9150612b9782612b56565b602082019050919050565b60006020820190508181036000830152612bbb81612b7f565b9050919050565b7f496e73756666696369656e74207265766f6b6520666565000000000000000000600082015250565b6000612bf86017836121f6565b9150612c0382612bc2565b602082019050919050565b60006020820190508181036000830152612c2781612beb565b9050919050565b7f45524332303a2064656372656173656420616c6c6f77616e63652062656c6f7760008201527f207a65726f000000000000000000000000000000000000000000000000000000602082015250565b6000612c8a6025836121f6565b9150612c9582612c2e565b604082019050919050565b60006020820190508181036000830152612cb981612c7d565b9050919050565b7f4f776e61626c653a206e6577206f776e657220697320746865207a65726f206160008201527f6464726573730000000000000000000000000000000000000000000000000000602082015250565b6000612d1c6026836121f6565b9150612d2782612cc0565b604082019050919050565b60006020820190508181036000830152612d4b81612d0f565b9050919050565b7f45524332303a20617070726f76652066726f6d20746865207a65726f2061646460008201527f7265737300000000000000000000000000000000000000000000000000000000602082015250565b6000612dae6024836121f6565b9150612db982612d52565b604082019050919050565b60006020820190508181036000830152612ddd81612da1565b9050919050565b7f45524332303a20617070726f766520746f20746865207a65726f20616464726560008201527f7373000000000000000000000000000000000000000000000000000000000000602082015250565b6000612e406022836121f6565b9150612e4b82612de4565b604082019050919050565b60006020820190508181036000830152612e6f81612e33565b9050919050565b7f4f776e61626c653a2063616c6c6572206973206e6f7420746865206f776e6572600082015250565b6000612eac6020836121f6565b9150612eb782612e76565b602082019050919050565b60006020820190508181036000830152612edb81612e9f565b9050919050565b7f45524332303a20696e73756666696369656e7420616c6c6f77616e6365000000600082015250565b6000612f18601d836121f6565b9150612f2382612ee2565b602082019050919050565b60006020820190508181036000830152612f4781612f0b565b9050919050565b7f45524332303a207472616e736665722066726f6d20746865207a65726f20616460008201527f6472657373000000000000000000000000000000000000000000000000000000602082015250565b6000612faa6025836121f6565b9150612fb582612f4e565b604082019050919050565b60006020820190508181036000830152612fd981612f9d565b9050919050565b7f45524332303a207472616e7366657220746f20746865207a65726f206164647260008201527f6573730000000000000000000000000000000000000000000000000000000000602082015250565b600061303c6023836121f6565b915061304782612fe0565b604082019050919050565b6000602082019050818103600083015261306b8161302f565b9050919050565b7f45524332303a207472616e7366657220616d6f756e742065786365656473206260008201527f616c616e63650000000000000000000000000000000000000000000000000000602082015250565b60006130ce6026836121f6565b91506130d982613072565b604082019050919050565b600060208201905081810360008301526130fd816130c1565b9050919050565b7f45524332303a206275726e2066726f6d20746865207a65726f2061646472657360008201527f7300000000000000000000000000000000000000000000000000000000000000602082015250565b60006131606021836121f6565b915061316b82613104565b604082019050919050565b6000602082019050818103600083015261318f81613153565b9050919050565b7f45524332303a206275726e20616d6f756e7420657863656564732062616c616e60008201527f6365000000000000000000000000000000000000000000000000000000000000602082015250565b60006131f26022836121f6565b91506131fd82613196565b604082019050919050565b60006020820190508181036000830152613221816131e5565b9050919050565b7f5265656e7472616e637947756172643a207265656e7472616e742063616c6c00600082015250565b600061325e601f836121f6565b915061326982613228565b602082019050919050565b6000602082019050818103600083015261328d81613251565b9050919050565b7f45524332303a206d696e7420746f20746865207a65726f206164647265737300600082015250565b60006132ca601f836121f6565b91506132d582613294565b602082019050919050565b600060208201905081810360008301526132f9816132bd565b905091905056fea264697066735822122066d6702592bb6346a94880b11aa7e4e2e8cce6397396ee9a1190f9d66dfd277e64736f6c634300081b0033a264697066735822122087753835bb7c1e057972d34e53e52a328c7534e5d0ea2ba6fac0a66befc6be3c64736f6c634300081b0033",
  "linkReferences": {},
  "deployedLinkReferences": {}
}